:020000040800F2
:10000000B80A002035020008291000082B1000084B
:100010002F100008331000083710000800000000FF
:100020000000000000000000000000003B1000087D
:100030003D100008000000003F10000841100008BB
:100040004F0200084F0200084F0200084F0200084C
:100050004F0200084F0200084F0200084F0200083C
:100060004F0200084F0200084F0200084F0200082C
:100070004F0200084F0200084F0200084F0200081C
:100080004F0200084F0200084F0200084F0200080C
:100090004F0200084F0200084F0200084F020008FC
:1000A0004F0200084F0200084F0200084F020008EC
:1000B0004F0200084F0200084F0200084F020008DC
:1000C0004F0200084F0200084F0200084F020008CC
:1000D0004F0200084F0200084D1000084F020008B0
:1000E0004F0200084F0200084F02000800F002F81B
:1000F00000F090F80AA090E8000C82448344AAF132
:100100000107DA4501D100F085F8AFF2090EBAE82F
:100110000F0013F0010F18BFFB1A43F0010318473B
:10012000BC5E0000DC5E0000103A24BF78C878C1D5
:10013000FAD8520724BF30C830C144BF04680C60ED
:10014000704700000023002400250026103A28BF35
:1001500078C1FBD8520728BF30C148BF0B60704739
:100160006E2902F0E383702902F02585662905F0E7
:100170004681652905F04381672905F040816129A1
:1001800005F03F8103681B0A28BF41F080016929FF
:1001900002F09083642902F08D83752902F08A832E
:1001A0006F2902F0B284782902F0F184E92902F083
:1001B0004D84E42902F04A84F52902F04784EF29AE
:1001C00002F0AF84F82902F0F0840368DB0928BF4D
:1001D00041F08001632903F0F781732903F0FC816A
:1001E000E32903F00782F32903F00C820020704713
:1001F0001FB503F05DFA04000020002104F0A4F90B
:10020000401C60600020002104F088F9E0601FBD00
:1002100010B510BD03F01EFA1146FFF7E9FF00F01C
:100220009DFE03F0FBFA03B4FFF7F2FF03BC03F0FB
:10023000FFFA00000948804709480047FEE7FEE74B
:10024000FEE7FEE7FEE7FEE7FEE7FEE7FEE7FEE786
:1002500004480549054A064B70470000530300084F
:10026000ED000008B8040020B80A0020B8060020FD
:10027000B80600200CB50020019000906C48006882
:1002800040F480306A49086000BF6948006800F4A3
:10029000003000900198401C0190009818B9019816
:1002A000B0F5A06FF1D16248006800F4003010B1E1
:1002B0000120009001E0002000900098012843D127
:1002C0005C48006840F010005A4908600846006821
:1002D00020F0030008600846006840F00200086053
:1002E000534840685249486008464068486008469C
:1002F000406840F4806048600846406820F47C1004
:1003000048600846406840F4E810486008460068C5
:1003100040F08070086000BF4548006800F0007041
:100320000028F9D04248406820F003004049486066
:100330000846406840F00200486000BF3C48406802
:1003400000F00C000828F9D10CBD10B5FFF792FFA2
:1003500010BD10B53648006840F00100344908600F
:1003600008464068344908403149486008460068FA
:10037000324908402E4908600846006820F4802071
:1003800008600846406820F4FE0048604FF41F00F3
:100390008860FFF7DAFF4FF000602949086010BD60
:1003A00010B5002100200022214B5B6803F00C01F6
:1003B00021B1042906D0082928D107E0214B224C7D
:1003C000236027E01F4B204C236023E0184B5B6821
:1003D00003F47010164B5B6803F48032022303EBC6
:1003E000904022B9194B4343174C23600DE0104B4A
:1003F0005B6803F4003323B1144B4343124C236076
:1004000003E0104B4343104C236003E00D4B0E4CB4
:10041000236000BF00BF064B5B68C3F303130C4CA3
:10042000E15C094B1B68CB40074C236010BD00000A
:1004300000100240002002400000FFF8FFFFF6FE1F
:1004400008ED00E000127A000000002000093D00E5
:100450000400002010B50446FB48844209D1012164
:10046000880300F031FD00214FF4804000F02CFDA6
:1004700032E0F648844209D10121480400F031FD00
:1004800000214FF4003000F02CFD25E0F0488442BC
:1004900009D10121880400F024FD00214FF48020BF
:1004A00000F01FFD18E0EB48844209D10121C80487
:1004B00000F017FD00214FF4002000F012FD0BE0CA
:1004C000E548844208D10121080500F00AFD002119
:1004D0004FF4801000F005FD10BD2DE9F04786B007
:1004E00005460E460024A24600BFA1460027B0895B
:1004F00000B100BF2F462C8A4CF6FF700440F088F4
:1005000004432C82AC894EF6F3100440B088318944
:100510000843718908430443AC81AC8A4FF6FF401D
:100520000440B0890443AC8201A800F046FCC648F0
:10053000874202D1DDF810A001E0DDF80CA0A88907
:1005400000F4004040B10AEBCA0000EB0A10316829
:100550004900B0FBF1F807E00AEBCA0000EB0A1013
:1005600031688900B0FBF1F86420B8FBF0F00401B9
:100570002009642101FB1089A88900F4004040B1E2
:10058000322000EBC900B0FBF1F000F0070004439B
:1005900008E0322000EB09106421B0FBF1F000F01C
:1005A0000F0004432C8106B0BDE8F0874FF41651CC
:1005B000016000218180C18001810C2141810021E5
:1005C0008181704710B502460020108A4FF2FF0368
:1005D00018400B884C8823438C882343CC882343C2
:1005E0001843108210BD0021018041808180C180AC
:1005F000704721B1828942F40052828104E08289ED
:100600004DF6FF731A4082817047F0B5034600240F
:1006100000260025002040F66A17B94200D100BF2D
:100620001846C1F3421401F01F06012707FA06F528
:10063000012C01D10C3004E0022C01D1103000E07B
:1006400014301AB107682F43076002E00768AF4310
:100650000760F0BD1AB1838A0B43838202E0838A6C
:100660008B4383827047028A4FF6F0731A400282EE
:10067000028A0A430282704782894FF2FF731A404E
:10068000828182890A438281704721B1828942F046
:100690000202828104E082894FF6FD731A40828152
:1006A0007047028A4FF6DF731A400282028A0A43B9
:1006B0000282704721B1028A42F48042028204E041
:1006C000028A4BF6FF731A4002827047C1F3080298
:1006D0008280704701468888C0F30800704781898E
:1006E00041F0010181817047028BD2B20283028BFB
:1006F00042EA012202837047028B02F47F420283A6
:10070000028B0A430283704721B1828A42F02002A1
:10071000828204E0828A4FF6DF731A408282704739
:1007200021B1828A42F01002828204E0828A4FF66E
:10073000EF731A408282704721B1828A42F0080228
:10074000828204E0828A4FF6F7731A4082827047F1
:1007500021B1828942F40042828103E08289C2F39E
:100760000E028281704721B1828A42F40062828245
:1007700004E0828A4FF2FF731A4082827047828AB5
:100780004FF6FB731A408282828A0A438282704744
:1007900021B1828A42F00202828204E0828A4FF60C
:1007A000FD731A408282704702460020B1F5007F37
:1007B00000D100BF13880B400BB1012000E00020E6
:1007C000704701F40072B2F5007F00D100BFCA4348
:1007D0000280704770B502460024002300250020E7
:1007E00040F66A16B14200D100BFC1F3421501F0D4
:1007F0001F03012606FA03F3012D02D19689334027
:1008000006E0022D02D1168A334001E0968A334079
:100810000C12012606FA04F41688344013B10CB108
:10082000012000E0002070BD10B50022002340F63A
:100830006A14A14200D100BF0A1201249440A3B25D
:10084000DC43048010BD000000380140004400403B
:1008500000480040004C00400050004010B50446E5
:10086000CC48844208D10121042000F02DFB002156
:10087000042000F029FB46E0C748844208D101214A
:10088000082000F021FB0021082000F01DFB3AE0C9
:10089000C248844208D10121102000F015FB00213C
:1008A000102000F011FB2EE0BD48844208D1012148
:1008B000202000F009FB0021202000F005FB22E0B1
:1008C000B848844208D10121402000F0FDFA0021FF
:1008D000402000F0F9FA16E0B348844208D1012123
:1008E000802000F0F1FA0021802000F0EDFA0AE00B
:1008F000AE48844207D10121801500F0E5FA0021BD
:10090000A01500F0E1FA10BD10B50121084600F075
:10091000DBFA0021012000F0D7FA10BD2DE9F041EB
:10092000024600250026002000230024002791F81D
:1009300003C00CF00F0591F803C00CF0100CBCF1D3
:10094000000F03D091F802C04CEA050591F800C0F1
:10095000BCF1000F31D0146800202BE04FF0010CE7
:100960000CFA00F3B1F800C00CEA03069E4220D155
:1009700083004FF00F0C0CFA03F7BC4305FA03FC9D
:100980004CEA040491F803C0BCF1280F06D14FF0E3
:10099000010C0CFA00FCC2F814C00AE091F803C084
:1009A000BCF1480F05D14FF0010C0CFA00FCC2F865
:1009B00010C0401C0828D1D31460B1F800C0BCF1AD
:1009C000FF0F34DD546800202EE000F1080C4FF0DA
:1009D000010808FA0CF3B1F800C00CEA03069E42C5
:1009E00021D183004FF00F0C0CFA03F7BC4305FA3A
:1009F00003FC4CEA040491F803C0BCF1280F05D1B4
:100A000000F1080C08FA0CF8C2F8148091F803C041
:100A1000BCF1480F07D100F1080C4FF0010808FAAB
:100A20000CF8C2F81080401C0828CED35460BDE8F2
:100A3000F0814FF6FF710180022181700421C170A5
:100A400070470246002093680B400BB1012000E084
:100A5000002070470146886880B270470246002037
:100A6000D3680B400BB1012000E000207047014625
:100A7000C86880B2704701617047416170470AB130
:100A8000016100E041617047C16070474FF48032FE
:100A90000A4382618161826182698269704702468C
:100AA0000020434B18684FF68073184040EA02104C
:100AB00008433F4B186070473E49C8617047F0B526
:100AC0000A46002300240021002500F00046B6F16C
:100AD000004F02D1364EF16901E0354E7168C0F326
:100AE000034583B200F44016B6F5401F08D121F04B
:100AF00070612F4E766826F070662D4F7E6012E092
:100B000000F48016B6F5801F06D1032606FA05F418
:100B1000A14341F0706106E0460D360103FA06F686
:100B2000B14341F0706122B1460D360103FA06F679
:100B3000314300F00046B6F1004F02D11C4EF16186
:100B400001E01B4E7160F0BD30B500228B071C0F19
:100B50000F2303FA04F2164B08338C1053F8243099
:100B60009343134C08348D1044F8253023468C10E1
:100B700053F824308C07240F00FA04F423430C4C60
:100B800008348D1044F8253030BD0A49DC31086046
:100B90007047000000080140000C014000100140B7
:100BA0000014014000180140001C014000200140D9
:100BB0000000014000002042DF48006840F00100D2
:100BC000DD49086008464068DC490840DA49486069
:100BD00008460068DA490840D749086008460068B6
:100BE00020F4802008600846406820F4FE00486039
:100BF0004FF41F0088607047CF49096821F48031A5
:100C0000CD4A11601146096821F480211160B0F5C8
:100C1000803F03D0B0F5802F0ED106E0C6490968A9
:100C200041F48031C44A116007E0C349096841F4C6
:100C3000A021C14A116000E000BF00BF704710B59D
:100C400001460022002300204A11012A02D1BA4C99
:100C5000236806E0022A02D1B74C236A01E0B64CB1
:100C6000636A01F01F02012494401C400CB1012072
:100C700000E0002010BD38B50020009000240025C1
:100C800000BF3120FFF7DBFF05460098401C0090B5
:100C90000098B0F5A06F01D0002DF2D03120FFF701
:100CA000CEFF08B1012400E00024204638BD0146F3
:100CB0000020A14A106820F0F80040EAC10010604E
:100CC0007047A04908607047024600209A4B586858
:100CD00020F47C1042EA01031843974B5860704798
:100CE00098490866704701460020934A506820F0F2
:100CF00003000843506070478F48406800F00C00C4
:100D00007047014600208C4A506820F0F0000843EC
:100D10005060704701460020874A506820F4E06028
:100D200008435060704701460020834A506820F411
:100D3000605040EAC1005060704729B17E4A527A43
:100D400002437D4B5A7204E07B4A527A82437A4BCB
:100D50005A7270477B49D8310860704701460020BD
:100D6000754A506820F440400843506070470021A5
:100D7000714A20321170704A82F82010012802D086
:100D800004280AD104E001216B4A2032117005E0E9
:100D90000521694A2032117000E000BF00BF704792
:100DA0006949086070476449096A0143624A1162EF
:100DB0007047654944390860704730B5002100220A
:100DC000002400235C4D6D6805F00C0121B104295D
:100DD00005D0082923D105E05C4D056022E05B4D7C
:100DE00005601FE0544D6D6805F47012524D6D683A
:100DF00005F48034022505EB92421CB9544D55434D
:100E000005600BE04C4D6D6805F400351DB1504D8B
:100E10005543056002E04D4D5543056002E04B4DE2
:100E2000056000BF00BF444D6D6805F0F001090981
:100E3000484D6B5C0568DD4045603F4D6D6805F4CD
:100E4000E061090A434D6B5C4568DD4085603A4DC1
:100E50006D6805F46051C90A3E4D6B5C4568DD4024
:100E6000C560354D6D6805F44041890B3A4D6B5CAA
:100E7000C568B5FBF3F5056130BD29B12E4A52694D
:100E800002432D4B5A6104E02B4A526982432A4B9C
:100E90005A61704729B1284A92690243264B9A61E8
:100EA00004E0254A92698243234B9A61704729B135
:100EB000214AD2690243204BDA6104E01E4AD2691A
:100EC00082431D4BDA61704729B11B4AD268024345
:100ED000194BDA6004E0184AD2688243164BDA6094
:100EE000704729B1144A12690243134B1A6104E096
:100EF000114A12698243104B1A61704712494039F6
:100F0000086070470F49C86470470B49C871704743
:100F10000948406A40F080700749486270470146BE
:100F20000020054A92680A400AB1012000E0002032
:100F30007047014988727047001002400000FFF8B6
:100F4000FFFFF6FE000042428004424200127A0097
:100F500000093D00140000202400002000F0AEF83D
:100F6000274800684FF47A72B0FBF2F1481EB0F1E6
:100F7000807F00D31BE0481E4FF0E02250615017E5
:100F80000F22002807DA13071E0E1E4B00F00F0574
:100F90002D1F5E5503E013071D0E1B4B1D5400BF94
:100FA00000204FF0E02290610720106100BF17A0E1
:100FB00000F0D8F800F0F7F920E018480078012890
:100FC0001CD10823164A0021084600F062FC00F0FC
:100FD000C1F940F6B83000F0F6F8002403E0002034
:100FE0000F490855641C142CF9DB00200B490870CC
:100FF000012240F225510B48FFF707FBDDE7000017
:101000000000002018ED00E000E400E048656C6C92
:101010006F204B65696C35210D0A00002C00002003
:101020003000002000440040704700BFFEE700BFD2
:10103000FEE700BFFEE700BFFEE77047704770475E
:1010400019480068401E18490860704710B540F202
:1010500025511648FFF7A8FB20B340F2255113484D
:10106000FFF7E2FB1148FFF735FBC4B2782C03D041
:101070000F48007814280CD100200D490870012079
:101080000C490870002240F225510848FFF7BDFACC
:1010900008E0094806490978445405480078401C8E
:1010A0000349087010BD00002800002000440040E3
:1010B0002D0000202C0000203000002000B587B05B
:1010C00001210420FFF7E6FE01214804FFF7EFFEAF
:1010D0004FF4C06001F0BEFA26208DF80400012014
:1010E0008DF8050000208DF8060001208DF807001E
:1010F00001A801F0B4FA18208DF81B000420ADF807
:10110000180003208DF81A0006A92148FFF706FCF5
:1011100004208DF81B000820ADF8180006A91C4813
:10112000FFF7FCFB4FF4165002900020ADF81400BE
:101130000C20ADF812000020ADF81000ADF80E0044
:10114000ADF80C0002A91348FFF7C7F9012240F2DD
:1011500025511048FFF759FA01210E48FFF749FAC7
:1011600007B000BD70B50446002500BF605781B2CE
:101170000848FFF7ABFA00BF80210648FFF714FBD1
:101180000028F9D0681CC5B2605D0028EED170BDA2
:10119000000801400044004000EBC001C9004FF0CE
:1011A000E0225161002191610521116100BF4FF0E2
:1011B000E021096901F480310029F8D004214FF0C1
:1011C000E0221161704700B5034603E04FF47A70E6
:1011D000FFF7E2FF181EA3F10103F7D100BD10B520
:1011E000044603E04FF47A70FFF7EDFF201EA4F1F0
:1011F0000104F7D110BD000010B50446224640217D
:10120000F748FFF73CFC10BD10B50446224680218C
:10121000F348FFF734FC10BD38B5002406E0002584
:1012200000E06D1CB5F57A7FFBD3641CB4F57A7FC2
:10123000F5D301210820FFF72DFE14208DF80300BF
:1012400003208DF802004020ADF800006946E44814
:10125000FFF764FB8020ADF800006946E048FFF727
:101260005DFB0120FFF7C8FF0120FFF7CDFF38BD70
:1012700010B50120FFF7C8FF0120FFF7BDFF0020D8
:10128000FFF7C2FF0020FFF7B7FF10BD10B5002029
:10129000FFF7BAFF0120FFF7AFFF0120FFF7B4FF10
:1012A00010BD70B50546002411E080212141294080
:1012B00009B1012100E000210846FFF7A5FF012048
:1012C000FFF79AFF0020FFF797FF601CC4B2082CBD
:1012D000EBDB0120FFF790FF0020FFF78DFF70BDD3
:1012E00010B50446FFF7C4FF7A20FFF7DAFF0020AD
:1012F000FFF7D7FF2046FFF7D4FFFFF7C7FF10BD6A
:1013000070B505460E46FFF7B3FF7A20FFF7C9FF19
:101310004020FFF7C6FF002404E0285DFFF7C1FF6F
:10132000601CC4B2B442F8DBFFF7B0FF70BD70B50B
:1013300005460C46A01CC4B245F0B000FFF7D0FF34
:10134000102141EA1410FFF7CBFF04F00F00FFF764
:10135000C7FF70BD10B500240DE000212046FFF747
:10136000E6FF04EB84119F4A02EB41008021FFF766
:10137000C7FF601CC4B2082CEFDB10BD10B5002005
:101380000EE0002108E0002200EB8013954C04EBF6
:1013900043035A544A1CD1B28029F4DB421CD0B218
:1013A0000828EEDB10BD10B5FFF736FFAE20FFF7C3
:1013B00097FFD520FFF794FF8020FFF791FFA8202B
:1013C000FFF78EFF3F20FFF78BFFD320FFF788FF4B
:1013D0000020FFF785FF4020FFF782FFA120FFF7E5
:1013E0007FFFC820FFF77CFFDA20FFF779FF12208C
:1013F000FFF776FF8120FFF773FFCF20FFF770FF25
:10140000D920FFF76DFFF120FFF76AFFDB20FFF720
:1014100067FF3020FFF764FFA420FFF761FFA620DD
:10142000FFF75EFF8D20FFF75BFF1420FFF758FFEB
:10143000AF20FFF755FFFFF7A1FFFFF78BFF10BDB0
:1014400010B50246012000E050430B1EA1F101013E
:10145000FAD110BD2DE9F04305460C461F46079E04
:101460004FF0000C00216B1E34E032F91100B04245
:1014700001DD012000E0002032F91380B04502DDDB
:101480004FF0010801E04FF0000840451FD034F94B
:10149000130034F91180A0EB080032F91180A6EB9B
:1014A000080800FB08F032F9138032F91190A8EB1C
:1014B000090890FBF8F034F911804044B84206DD89
:1014C000BCF1000F01D1012000E0002084460B4652
:1014D000481C01B2A942C8DB0CF0FF00BDE8F08354
:1014E0002DE9FF4F87B08B4614469946079803F0C5
:1014F00020FB05460E46584603F01BFB07462A46CE
:10150000334602F0F3FE384A384BCDE9000103F0D0
:101510001FF90022364BCDE9020103F071FBCDE942
:10152000040103F0A9FA0FFA80FA4C4507DAA24544
:101530000BDBCA4509DC01200BB0BDE8F08FA245EA
:1015400001DACA4501DC0120F6E70020F4E72DE9C5
:10155000F04706460D46174698462846E91705EB1C
:101560005171C9100FFA81F905EB0801481EC11726
:1015700000EB5171C910491C0FFA81FA002D07DAEE
:10158000A9F101000FFA80F9AAF101000FFA80FA1F
:101590004C4616E0002E12DB7F2E10DC002C0EDBFA
:1015A000072C0CDCF1B2E0B2FFF7C1FE04EB8411B2
:1015B0000C4A02EB410188193946FFF7A1FE601C75
:1015C00004B25445E6DBBDE8F0872DE9F04304465C
:1015D0000D4616461F46284647E0224640E00000DA
:1015E000000C0140440000201F85EB51B81E09404B
:1015F00000806640002A31DB7F2A2FDC00282DDBAB
:101600003F282BDC4FEAE07C00EB5C7C4FEAEC0CE3
:101610000CEB8C1CDFF8648408EB4C0C1CF802C04B
:1016200003464FEAE07800EB58784FEAE808A0EB71
:10163000C8094FF0010808FA09F82CEA080C01461D
:101640004FEAE07800EB58784FEAE80808EB881892
:10165000DFF8289409EB480808F802C0511C0AB2C8
:10166000A1199142C6DC411C08B2E9198142B4DCDF
:10167000BDE8F08310B5002015E000210FE000EB7D
:101680008012FE4B03EB4202525C82F0FF0200EB41
:101690008013FA4C04EB43035A544A1CD1B28029FC
:1016A000EDDB421CD0B20828E7DB10BD2DE9F0438A
:1016B00004460D4616461F4628463CE0224635E0C5
:1016C000002A31DB7F2A2FDC00282DDB3F282BDC92
:1016D00001464FEAE07C00EB5C7C4FEAEC0C0CEB43
:1016E0008C1CDFF8988308EB4C0C1CF802C00346F6
:1016F0004FEAE07800EB58784FEAE808A0EBC80919
:101700004FF0010808FA09F88CEA080C4FEAE07873
:1017100000EB58784FEAE80808EB8818DFF85C938C
:1017200009EB480808F802C0511C0AB2A1199142FD
:10173000C6DC411C08B2E9198142BFDCBDE8F08378
:101740002DE9FF4F80460E469146DDF834B0002566
:1017500000244A4631464046039BFFF736FF00BF50
:1017600066E0002560E008EB050000285ADB08EB86
:1017700005007F2856DC3046F11706EB5171C91081
:101780000FB2F11706EB5171C910A6EBC10A002E7A
:1017900005DA781E07B20AF108000FFA80FA381944
:1017A00000281BDB3819072818DC381900EB8010DB
:1017B000B24901EB400008EB0501405C04FB095114
:1017C0001BF8011001FA0AF10843391901EB8111E4
:1017D000AA4A02EB410108EB050288543819401C63
:1017E00000281FDB3819401C07281BDC3819401C57
:1017F00000EB8010A14901EB400008EB0501405CC3
:1018000004FB09511BF80110CAF1080211410843F9
:101810003919491C01EB8111984A02EB410108EB8F
:1018200005028854681CC5B24D459CDB601CC4B2DF
:101830000399481EC11700EB5171012202EBE1012F
:10184000A1428EDCBDE8FF8FF8B506460F46144670
:101850001D46082D0CD1A4F12000894901EB001090
:1018600010230822394600903046FFF769FF0FE049
:10187000062D0DD1A4F1200000EB4000814901EBC1
:10188000400008230622394600903046FFF758FFF3
:10189000F8BD2DE9F0410646884615461F4600244E
:1018A00009E02A5D04FB076108B23B464146FFF7A9
:1018B000CBFF601CC4B2285D0028F2D1BDE8F081E6
:1018C0002DE9F0470646894617461D46DDF820807B
:1018D000002417E0281B411E0A20FFF7B1FDB7FBCB
:1018E000F0F00A21B0FBF1F201FB120000F1300A26
:1018F00004FB086108B2434652464946FFF7A4FF7D
:10190000601CC4B2AC42E5DBBDE8F0872DE9F04FC6
:1019100080468A4615461E46DDF82490002D07DBDA
:101920004B462B2251464046FFF78EFF2F4606E0DE
:101930004B462D2251464046FFF786FF6F4200245A
:1019400018E0301B411E0A20FFF77AFDB7FBF0F0CC
:101950000A21B0FBF1F201FB120000F1300B611C17
:1019600001FB098108B24B465A465146FFF76CFF0E
:10197000601CC4B2B442E4DBBDE8F08F2DE9F0474F
:1019800006468A4691461F46DDF82080002421E065
:10199000381B411E1020FFF753FDB9FBF0F000F09B
:1019A0000F050A2D0ADA05F13001CAB204FB0861FD
:1019B00008B243465146FFF747FF09E005F13701FA
:1019C000CAB204FB086108B243465146FFF73CFF28
:1019D000601CC4B2BC42DBDBBDE8F0872DE9F047F8
:1019E0000646894617461D46DDF82080002414E08F
:1019F000281B411E0220FFF723FDB7FBF0F000F08B
:101A0000010000F1300A04FB086108B24346524667
:101A10004946FFF719FF601CC4B2AC42E8DBBDE8E1
:101A2000F0872DE9FF5F86B0074614461D46DDF8B6
:101A30005080169E002213462046294603F0DEF908
:101A400006D833462B2238460799FFF7FDFE07E0FC
:101A500033462D2238460799FFF7F6FE85F00045FC
:101A60002046294603F038F88246504603F078F8BD
:101A700022462B46CDE9040106E000004400002088
:101A8000F6540008E65A000803F048FA04460D46EA
:101A90000A201599FFF7D4FC8146484603F060F808
:101AA00022462B46CDE9000103F0AAF8CDE9020158
:101AB00002F0EAFCCDE9040103F00EF88346BBFB1B
:101AC000F9F08244B91908B2434652460096079984
:101AD000FFF7F6FE08F1010101FB067108B233467B
:101AE0002E220799FFF7B0FE08F1020101FB0671F3
:101AF00008B200965A46159B0799FFF7E1FE0AB017
:101B0000BDE8F09F2DE9FC47804689461646002730
:101B10000020019000253AE0705D01A9C855781CAD
:101B2000C7B2022F31DB002700240CE0C4EBC40154
:101B300001EB8101F74A881801A900F00BFE00B9FA
:101B40000CE0601CC4B2C4EBC40101EB8101F14A9A
:101B50008818F1A100F0FEFD0028E7D100BFC4EB1A
:101B6000C40000EB8000EB490844C01C05F1010AE9
:101B70000AEBDA714910491E08EB0111009008B216
:101B800010231A464946FFF7DBFD681CC5B2705D9D
:101B90000028C1D1BDE8FC870FB470B5C2B00546BE
:101BA0000E4614464AA8019002A8019A499900F0ED
:101BB000BFFD00200190234602AA31462846FFF7C8
:101BC00068FE42B070BC5DF814FB70B50346002B94
:101BD00024DB7F2B22DC002920DB3F291EDC08468A
:101BE000CC1701EB5474E41004EB8414CB4D05EBDB
:101BF0004404E45C0A46CD1701EB5575ED10A1EBEA
:101C0000C5060125B5402C43CD1701EB5575ED10E8
:101C100005EB8515C14E06EB4505EC5470BD70B55E
:101C20000246002A1BDB7F2A19DC002917DB3F292B
:101C300015DCCC1701EB5474E41004EB8414B74D9D
:101C400005EB4404A45CCD1701EB5575ED10A1EB39
:101C5000C5060125B5402C400CB1012070BD002007
:101C6000FCE72DE9FF4F86B0069E079CDDF820803B
:101C7000DDF824900020019000904C450FD146459E
:101C800002DDB2464646D046354605E021462846A6
:101C9000FFF79BFF681C05B24545F7DD99E0464517
:101CA0000FD14C4502DDA2464C46D146274605E001
:101CB00039463046FFF789FF781C07B24F45F7DDFC
:101CC00087E0464505DDB2464646D046A2464C462C
:101CD000D1464C4507DD604204B2C9F100000FFA5D
:101CE00080F901200190A9EB0400A8EB06018842CD
:101CF00007DDB24626465446C246C846D1460120B4
:101D00000090A8EB060000B20590A9EB04000FFAC2
:101D100080FB4FEA4B0000B203900598ABEB00004C
:101D2000400000B202900598C0EB4B0000B2049056
:101D300035462746019838B1009828B1684201B26B
:101D40003846FFF742FF12E0019828B1784201B20D
:101D50002846FFF73AFF0AE0009820B129463846A6
:101D6000FFF733FF03E039462846FFF72EFF2EE04A
:101D7000681C05B20498002805DADDE90310084460
:101D800000B2049006E0781C07B202990498084457
:101D900000B20490019838B1009828B1684201B2AD
:101DA0003846FFF712FF12E0019828B1784201B2DD
:101DB0002846FFF70AFF0AE0009820B12946384676
:101DC000FFF703FF03E039462846FFF7FEFE4545CF
:101DD000CEDB0AB0BDE8F08F2DE9F04705460E4690
:101DE00017469846DDF820A0BAF1000F24D12C4602
:101DF0000CE031462046FFF7E8FE06EB0800401EE7
:101E000001B22046FFF7E1FE601C04B2E819A042CF
:101E1000EFDC34460BE021462846FFF7D6FEE919F1
:101E2000491E08B22146FFF7D0FE601C04B206EB43
:101E30000800A042EFDC14E02C460FE0B14607E0BA
:101E400049462046FFF7C1FE09F101000FFA80F96B
:101E500006EB08004845F3DC601C04B2E819A04218
:101E6000ECDCBDE8F0872DE9FF4F87B014461D4636
:101E7000DDE91467DDF81C80DDF82090DDF81C80BA
:101E8000CDF81880DDF82090CB46DDF81C80ADF849
:101E90000C80ADF80E40ADF81060DDF82090ADF884
:101EA0000490ADF80650ADF80870169890B92B461E
:101EB0002246DDE90701FFF7D4FE3B463246DDE965
:101EC0000701FFF7CEFE3B46324629462046FFF784
:101ED000C8FE40E0444500DAA046464500DAB04678
:101EE0004D4500DAA9464F4500DAB94606988442C6
:101EF00000DD06940698864200DD06965D4500DD0D
:101F0000AB465F4500DDBB46C24621E0CDF81490EC
:101F100017E00000205D00080000000044000020E1
:101F20000598534601AA03A900900320FFF792FAEF
:101F300018B150460599FFF748FE0598401C00B2BD
:101F4000059005985845EBDD0AF101000FFA80FA7B
:101F500006988245DADD0BB0BDE8F08F2DE9F04F31
:101F600007460E4691469A46C9F1010B00254C469C
:101F7000321911B27A1910B2FFF727FE321B11B2D3
:101F80007A1B10B2FFF721FE721911B23A1910B282
:101F9000FFF71BFE721B11B23A1B10B2FFF715FEC2
:101FA000BAF1000F0FD060420FFA80F809E006EB9B
:101FB000080001B23846FFF708FE08F101000FFAE9
:101FC00080F8A045F3DB75E0681C05B2BBF1000F9B
:101FD00005DA6800401C58440FFA80FB07E0601ED9
:101FE00004B2281B4000401C58440FFA80FB3219F1
:101FF00011B27A1910B2FFF7E8FD721911B23A194D
:1020000010B2FFF7E2FD321B11B27A1B10B2FFF7DC
:10201000DCFD721B11B23A1B10B2FFF7D6FD321B6A
:1020200011B27A1910B2FFF7D0FD721B11B23A1932
:1020300010B2FFF7CAFD321911B27A1B10B2FFF7C6
:10204000C4FD721911B23A1B10B2FFF7BEFDBAF10E
:10205000000F2FD060420FFA80F811E006EB080263
:1020600011B27A1910B2FFF7B0FD06EB080211B2F7
:102070007A1B10B2FFF7A9FD08F101000FFA80F8F2
:10208000A045EBDB68420FFA80F811E006EB08028E
:1020900011B23A1B10B2FFF798FD06EB080211B21D
:1020A0003A1910B2FFF791FD08F101000FFA80F81C
:1020B000A845EBDBA54287DBBDE8F08F2DE9FF4F9C
:1020C00097B007460E469B46DDF864A0D94600252A
:1020D0004C46C9F1000002F02CFD0022FE4BCDE978
:1020E000080102F079FACDE90C010AFB0AF002F0CE
:1020F00020FDCDE90A01DDE90C2302F081FDCDE9E7
:10210000100109FB09F002F014FDCDE90E01DDE933
:10211000102302F061FACDE9120102F02BFA1590BA
:102120002498A8B160420FFA80F80FE006EB08008F
:1021300001B23846FFF749FD06EB080001B2384608
:10214000FFF743FD08F101000FFA80F8A045EDDB31
:10215000321911B27A1910B2FFF737FD321B11B2E2
:102160007A1B10B2FFF731FD321911B27A1B10B28F
:10217000FFF72BFD321B11B27A1910B2FFF725FDC4
:102180005BE00021159803F045F80DD809FB09F133
:102190006A00D21C01FB02F003F024F81390159999
:1021A00002F0B2FF159014E009FB09F16A00D21C9D
:1021B00051430AFB0AF26300C3F1020302FB03105E
:1021C00003F010F81390159902F09EFF1590601E11
:1021D00004B2681C05B22498B8B160420FFA80F8C6
:1021E00011E006EB080211B27A1910B2FFF7EDFC0C
:1021F00006EB080211B27A1B10B2FFF7E6FC08F1F9
:1022000001000FFA80F8A045EBDB321911B27A1900
:1022100010B2FFF7DAFC321B11B27A1B10B2FFF7D3
:10222000D4FC321911B27A1B10B2FFF7CEFC321B6C
:1022300011B27A1910B2FFF7C8FC204602F079FCFF
:102240000022A54BCDE90A0102F074FECDE90E0192
:102250000AFB0AF002F06DFCCDE90C01DDE90E236A
:1022600002F0CEFCCDE9120109FB09F16A1C01FB69
:1022700002F002F05EFCCDE91001DDE9122302F06C
:1022800083FCFFF47EAF0AFB0AF101FB09F101FBBD
:1022900009F002F04EFCCDE910010AFB0AF1621EC2
:1022A000514301FB02F002F044FCCDE90C01284649
:1022B00002F03FFC0022884BCDE9040102F08CF9CA
:1022C000CDE90801284602F034FC0022824BCDE91A
:1022D000000102F081F9CDE9040109FB09F002F0E7
:1022E00028FCCDE90201DDE9042302F089FCCDE9F7
:1022F0000601DDE9082302F083FCCDE90A01DDE9EE
:102300000C2302F069F9CDE90E01DDE9102302F09A
:1023100011FECDE9120102F02DF914905CE00021CC
:10232000149802F077FF15D809FB09F16A00921C96
:1023300051430AFB0AF26300C3F1030302FB0310DB
:1023400002F050FF1390149902F0DEFE1490681C06
:1023500005B20DE00AFB0AF16200C2F1030201FBC3
:1023600002F002F03FFF1390149902F0CDFE14909A
:10237000601E04B22498B8B160420FFA80F811E0F0
:1023800006EB080211B27A1910B2FFF71EFC06EB39
:10239000080211B27A1B10B2FFF717FC08F1010016
:1023A0000FFA80F8A045EBDB321911B27A1910B29E
:1023B000FFF70BFC321B11B27A1B10B2FFF705FCC2
:1023C000321911B27A1B10B2FFF7FFFB321B11B2A8
:1023D0007A1910B2FFF7F9FB002CA0DC1BB0BDE8A6
:1023E000F08F2DE9F05F07460E4691469B46C9F1F6
:1023F000010A00254C465A46214628460A9BFFF70B
:102400006FF828B1321911B27A1910B2FFF7DDFB5B
:102410005A46604201B2684200B20A9BFFF760F878
:1024200028B1321B11B27A1B10B2FFF7CEFB5A460D
:10243000294620460A9BFFF753F828B1721911B2BA
:102440003A1910B2FFF7C1FB5A46684201B2604226
:1024500000B20A9BFFF744F828B1721B11B23A1B75
:1024600010B2FFF7B2FB0B98B0B160420FFA80F8E0
:1024700010E05A46414600200A9BFFF731F828B188
:1024800006EB080001B23846FFF79FFB08F1010098
:102490000FFA80F8A045ECDBD6E0681C05B2BAF173
:1024A000000F05DA6800401C50440FFA80FA07E07C
:1024B000601E04B2281B4000401C50440FFA80FAF2
:1024C0005A46214628460A9BFFF70AF840B13219BE
:1024D00011B27A1910B201E00000E03FFFF775FB7E
:1024E0005A46294620460A9BFEF7FAFF28B1721980
:1024F00011B23A1910B2FFF768FB5A46604201B2B6
:10250000684200B20A9BFEF7EBFF28B1321B11B202
:102510007A1B10B2FFF759FB5A46684201B260427B
:1025200000B20A9BFEF7DCFF28B1721B11B23A1B06
:1025300010B2FFF74AFB5A46604201B228460A9B96
:10254000FEF7CEFF28B1321B11B27A1910B2FFF795
:102550003CFB5A46684201B220460A9BFEF7C0FF88
:1025600028B1721B11B23A1910B2FFF72EFB5A466E
:102570002146684200B20A9BFEF7B2FF28B1321929
:1025800011B27A1B10B2FFF720FB5A46294660426F
:1025900000B20A9BFEF7A4FF28B1721911B23A1BD0
:1025A00010B2FFF712FB0B9800284DD060420FFAD3
:1025B00080F820E05A46414628460A9BFEF790FFE5
:1025C00030B106EB080211B27A1910B2FFF7FDFA2A
:1025D0005A464146684200B20A9BFEF781FF30B17D
:1025E00006EB080211B27A1B10B2FFF7EEFA08F1FF
:1025F00001000FFA80F8A045DCDB68420FFA80F892
:1026000020E05A464146604200B20A9BFEF768FF4E
:1026100030B106EB080211B23A1B10B2FFF7D5FA3F
:102620005A46414620460A9BFEF75AFF30B106EB58
:10263000080211B23A1910B2FFF7C7FA08F1010007
:102640000FFA80F8A845DCDBA542FFF626AFBDE80F
:10265000F09F000031490143314A1160704770B565
:10266000002100230F22C47804B32D4C246804F405
:10267000E064C4F5E064210AC1F10403CA4044786F
:1026800004FA03F18478144021430901254C0678AB
:10269000A155047804F01F050124AC4005786D11A4
:1026A000AD0005F1E025C5F8004109E0047804F02B
:1026B0001F050124AC401C4D0678761145F82640D4
:1026C00070BD1A4A0A400243154B1B1F1A6070471F
:1026D00039B1134A121D12680243114B1B1D1A60B7
:1026E00006E00F4A121D126882430D4B1B1D1A6033
:1026F0007047042808D14FF0E021096941F0040136
:102700004FF0E022116107E04FF0E021096921F06C
:1027100004014FF0E0221161704700000000FA054B
:102720000CED00E000E400E080E100E080FFFF1F2E
:102730001CB50C46064B7B4469460090204600F0D1
:102740000EF904460020694600F01CF920461CBD25
:102750004B0200004FF0013C50F8042B51F8043BB1
:102760009A4221D1A2EB0C03934313EACC1317D165
:1027700050F8042B51F8043B9A4215D1A2EB0C03FC
:10278000934313EACC130BD150F8042B51F8043BBC
:102790009A4209D1A2EB0C03934313EACC13DBD08A
:1027A0004FF00000704700BFD01A01BAB1FA81F1B2
:1027B00001F0180122FA01F0CB40C1F12001DBB297
:1027C000C0B2C01A2CFA01F3D11A914311EAC31115
:1027D000E6D1704770477047704710B500F0BAFAFD
:1027E000006810BD10B5044600F0B4FA046010BDD6
:1027F00070B5044685690068C10601D5302600E041
:102800002026C00707D070BDD4E90121304690478B
:10281000206A401C20626D1EF6D570BD70B504465E
:1028200085690078C00707D170BDD4E90121202057
:102830009047206A401C20626D1EF6D570BD096865
:102840004A0501D540B27047C905FCD500B27047B2
:1028500009684A0501D5C0B27047C905FCD580B2E8
:10286000704770B50C460546012A05D028788006C9
:1028700000D5EA69002302E0012305E05B1C9342D6
:1028800002D2E05C0028F9D1A869E618C01AA86154
:10289000286A184428622846FFF7AAFF04E0D5E911
:1028A000012114F8010B9047B442F8D32846FFF7F2
:1028B000B5FF70BD2DE9F04106460024106875296A
:1028C000314616A510D0FFF7BAFF002802DA4042C1
:1028D00013A507E031688A0701D512A502E0490770
:1028E00004D511A5012401E0FFF7B2FF00210A225F
:1028F00006F1240709E0B0FBF2FCB0FBF2F302FBA7
:102900001C00303078541846491C0028F3D1234667
:102910002A463046BDE8F04100F065BA00000000EC
:102920002D0000002B00000020000000116802684C
:10293000006A530501D508700AE0D30501D5088067
:1029400006E0130603D5C217C1E9000200E00860E3
:102950000120704701694A1C02610878704700B580
:102960008FB0CDE901310021059105497944CDE9C8
:1029700003101146684600F029F90FB000BD0000B1
:10298000E5FFFFFF0A6802F8010B0A6070470000CC
:102990002DE9FF5F15468A460446DFF8AC80F8440F
:1029A0000027D8E900103E46CDE9001010E03AF8C3
:1029B00016106A4602A800F029FE411C07D02178B3
:1029C000890603D5E269391891420DD80744761C6F
:1029D0002078800602D5E069B84205DDAE42E6DB2C
:1029E0003AF816000028E2D1A069C01BA061204679
:1029F000FFF7FEFED8E90010CDE90010002017E037
:102A00003AF818106A4602A800F000FEB0F1FF3F45
:102A100081460BD000250DF1080B05E0D4E901211A
:102A20001BF8050090476D1C4D45F7D308F10100D8
:102A3000B0428046E4DB206A384420622046FFF73B
:102A4000EDFEBDE8FF9F0000963400002DE9F04147
:102A50008046D21D22F007020025D2E90002F529A6
:102A600015A614D0011E72F1000106DA0023D0EB86
:102A7000030063EB020211A608E0D8F800108B07F0
:102A800001D50FA602E0490701D50EA60125114682
:102A9000002408F1240704E000F060F930323A55D0
:102AA000641C50EA0102F7D12B46324621464046CB
:102AB000BDE8F04100F097B9000000002D000000D3
:102AC0002B0000002000000030B4002100F124049D
:102AD00008E002F00705D208303542EA4372DB080D
:102AE0006554491C52EA0305F3D10468002310A27F
:102AF000250707D5A40600D421B1C46901230DA27E
:102B0000641EC46130BC00F06EB910B504462146A5
:102B10001068FFF79DFE02462046BDE810400023E6
:102B2000D2E7D21D22F00701D1E90023CCE7000053
:102B30000000000030000000F0B40D4601880905D7
:102B400002D5214C7C4402E01F4C7C440E34002111
:102B500000F1240608E002F00F071209E75D42EADF
:102B600003721B097754491C52EA0307F3D1027818
:102B70000023120704D5702D06D009B102231134A9
:102B80002246F0BC00F02FB901231034F8E770B5ED
:102B900004460D4621461068FFF75AFE02462946B4
:102BA0002046BDE870400023C6E7D21D22F007038F
:102BB000D3E90023C0E70368126843F020030360F1
:102BC0000823C3610023B7E7F83200002DE9F05F66
:102BD000894604464FF0000ADFF874B1FB44C0F8A0
:102BE00020A02046E1688847002874D0252806D018
:102BF000D4E901219047206A401C2062F1E70026B9
:102C00005F462046E16888472028054607DB312DCE
:102C100005D2781910F8200C08B10643F1E7B00787
:102C200001D526F00406C4F81CA00027C4F818A09B
:102C30002A2D09D0284601F041FA38B304EB870861
:102C4000303DC8F8185019E059F8041B204604EB31
:102C500087029161E1688847012F054618D1E06934
:102C6000002820DA26F020061DE0D8F8180000EB36
:102C7000800005EB40003038C8F818002046E168B5
:102C80008847054601F01AFA0028EED1012F0AD034
:102C90002E2D08D12046E16888477F1C0546022F6B
:102CA00046F02006C4DBA069002803DA404246F063
:102CB0000106A061F00701D026F010066C2D0BD0A4
:102CC000682D09D04C2D39D06A2D35D0742D35D0D2
:102CD0007A2D33D016E038E0E1682F462046884749
:102CE000B842054609D16C2F26D04FF48060E168C8
:102CF000064320468847054604E06C2F1AD04FF45F
:102D0000807006430DB3A5F14100192802D8203583
:102D100046F400664A462946204626604E46FDF7A0
:102D20001FFA80B101280BD0F61D26F0070000F134
:102D3000080956E74020E4E78020D8E70020D6E7DE
:102D400006F104094DE7284652E7206ABDE8F09FE6
:102D500088320000004870475404002030B5B0F1BC
:102D60000A024FEA900E71F100034EEA817EB0EB49
:102D70000E0061EB91014FEA101E4EEA017E10EB4E
:102D80000E0041EB11114FEA102E4EEA016E10EBCE
:102D90000E0041EB11214FEA104E4EEA014E10EBAE
:102DA0000E0041EB1141401841F100014FEAD00003
:102DB00040EA41704FEAD10110EB80054FEA8104EF
:102DC00044EA907444EB01046D1944EB0404521B73
:102DD000A3414FF0000348BF0A3200D530BD401C6C
:102DE00041F1000130BD2DE9F0470D46994692466C
:102DF000044600F124080168880604D5E06921F042
:102E00001001216000E00120A84201DD471B00E025
:102E10000027A1697A1902EB0900081AA06120783D
:102E2000C00602D42046FFF7E3FC002608E0D4E900
:102E300001211AF806009047206A401C761C206287
:102E40004E45F4DB2078C0060AD52046FFF7D0FCBB
:102E500006E0D4E9012130209047206A401C20621E
:102E6000381EA7F10107F4DC07E0D4E9012118F8C6
:102E700005009047206A401C2062281EA5F101052C
:102E8000F3DC2046FFF7CAFC2078000602D50220BA
:102E9000BDE8F0870120FBE770472DE9FF4F0C46A6
:102EA0001E464FF0FF378BB0D2E90001DDF860809D
:102EB0000A908A46C1F30A5505B93D4600210846E5
:102EC0004FF00000BAF1000F00F4400005DA00EB0B
:102ED00080004FF4400101EA50004FEA9059B9F1E7
:102EE000010F00DDB9460A9850EA4A000ED044F6B8
:102EF0001050A5F2FF3545432F14B8F1000F1ED036
:102F00007542291E1EDDC9F100021CE0B8F1010F57
:102F10004FF0000001D0302103E0F24305E02154DE
:102F2000401CB042FBDB30460022002121540B99AB
:102F3000C1F80880C1E900200FB0BDE8F08FBD1BCB
:102F40006D1CDEE74A4600DA694206A800F0F4FB91
:102F500006AB93E8070003AB83E8070050460A99E5
:102F600000F06DFC8DE80700A0F500501F380090C0
:102F70000398002D0ADD42F21F014A46084400234F
:102F800003A90390684600F0D6FE09E0A0F50050C2
:102F90004A461F38002303A90390684600F0E0FE6C
:102FA0008DE807000004000C03D04FF0FF3041080B
:102FB00000E01046B8F1000F03D000220092154641
:102FC0001EE0751E05D4FFF7C9FE303262556D1E36
:102FD000F9D5B3460122084302D000227F1C04E049
:102FE0002078302801D100227F1E002A099784D042
:102FF0001DE0112D07DAFFF7B1FE303262556D1C6E
:1030000050EA0102F5D1084302D00098C8B10EE0A1
:103010000021681E05E0235C625C63542254401E5C
:10302000491C8142F7DBAB46A81B401E09900020DB
:1030300004F80B000B98099AC0F80880C0E9002B2F
:103040007AE711264FF0000857E72DE9F04F884640
:103050000446D21D22F0070191B0D1E90001CDE96B
:103060000A0100F0B4FF02460B98C00F01D02D20DA
:1030700007E02068810701D52B2002E0202101EA2A
:10308000C000032A099001D0072A05DB0346414608
:10309000204600F011FB0BE12078800601D5E069A5
:1030A00000E00620B8F1650F814606D0B8F1660F42
:1030B00018D0B8F1670F70D131E00020B9F1110FCD
:1030C000009001DB112301E009F101030AAA01A923
:1030D0000CA8FFF7E2FEDDE90C70002609F10105FE
:1030E000834647E001204B4600904FF000470AAA74
:1030F00001A90CA8FFF7D1FEDDE90DB00C995D46E2
:10310000002610B909F101000D18B9EB050003D430
:10311000C0F1FF3609F10105A5EB09002BE0B9F17B
:10312000010F01DA4FF001090020B9F1110F0090F1
:10313000484601DD112300E003460AAA01A90CA8B4
:10314000FFF7ABFEDDE90C704D4600268346207884
:1031500000070AD4AB4500DA5D4601A8012D04DD65
:10316000411911F8011C302907D04F4502DA17F137
:10317000040F04DA012082460FE06D1EEEE7002FF7
:1031800002DCED1B3E4403E0781CA84200DD7D1C00
:10319000B81B00F1010A4FF000472078000703D464
:1031A000AA4501DB4FF0FF3A0021B7F1004F0DF1C6
:1031B00043088DF8431024D002202B23002F01DA7E
:1031C0007F422D230A21021EA0F1010000DC5FB125
:1031D00097FBF1FC97FBF1F201FB1C7C17460CF10D
:1031E000300C08F801CDEEE7A8F10100037021884A
:1031F000090501D5452100E06521A0F1010800F88D
:10320000011C09980FA9A1EB0807FF1D00B10120BF
:10321000411901EBEA70A1693844081A401EA06107
:103220002078C00602D42046FFF7E2FA099828B1B8
:10323000D4E901219047206A401C20622078C00612
:1032400022D52046FFF7D4FA1EE0002E04DBB3455A
:1032500002DD01A8805D00E03020D4E90121904723
:10326000206A401C2062761CAAF101005FEA000A75
:103270000AD100F01DFAC0680168405CD4E9012160
:103280009047206A401C2062281EA5F10105DCDC65
:1032900007E0D4E9012118F8010B9047206A401C8F
:1032A0002062381EA7F10107F3DC2046FFF7B6FACB
:1032B000032011B041E600002DE9F04F04460D4611
:1032C000D21D22F0070089B0D0E900974846394660
:1032D00000F07DFE0246F80F01D02D2307E02068A4
:1032E000810701D52B2302E0202101EAC0038DF8DC
:1032F00020300BB1012000E00020032A824601D0DB
:10330000072A04DB2946204600F0D6F93FE1207861
:10331000800601D40D2500E0E569C7F30A560D2D9E
:1033200049DA00214FEA175B08464FF00000002FF2
:1033300000F4400007DA00EB80004FF4400100EB9E
:10334000D07001EA60008115012901DD4FF0FF31E5
:1033500000224FEA850CBCF1180F06D31346ACF1DE
:1033600018004FF08052C24003E04FF4801323FA5C
:103370000CF30CF10C0CBCF1200F04D3ACF1200CBD
:1033800009FA0CF001E007FA0CF000294FF00048B0
:1033900001DD18B90FE00ED140450CD319EB02093D
:1033A0005F4121B9404502D19F4329EA0209BBEBA5
:1033B000175F00D0761C2088000502D57B48784432
:1033C00002E07A487844193808AA302302F80A3013
:1033D000037C0AF10101002E0AF1020A53546A46E5
:1033E00002DC4FF0300101E04FF031014FF00108F5
:1033F0008DF8001002D0A6F2FF3603E059EA47012B
:1034000000D06B4E002D02DC2178090704D54FF067
:1034100002082E218DF80110C44600210BE0C7F3ED
:1034200003433F01C35C491C6D1E02F808300529A7
:1034300008F1010801DA002DF1DC00210CE000EBBD
:103440001973491C1B786D1E082902F808304FEAD1
:10345000091908F1010801DA002DF0DC21688B065A
:1034600002D516E0A8F10108E04505DD02EB0803EE
:1034700013F8013C302BF5D0B8F1000F09DD02EB59
:10348000080313F8013C2E2B03D1090701D4A8F13E
:103490000108002D05DD3E2102F808106D1E08F11F
:1034A0000108407C002E02F8080008F1010804DA47
:1034B0002D20764202F8080002E02B2002F80800D6
:1034C0000A214FF47A70864208F101080BDB96FB63
:1034D000F0F3303302F8083096FBF0F308F10108FE
:1034E00000FB136601E0642E0CDB642096FBF0F316
:1034F000303302F8083096FBF0F308F1010800FBC6
:10350000136601E00A2E06DB96FBF1F0303002F87C
:10351000080008F1010896FBF1F001FB1060303063
:1035200002F80800A16908F1010808EB050202EBA6
:103530000A00081AA0612078C00602D42046FFF7CE
:1035400057F9216A08AE01EB0A00206204E0D4E9D1
:10355000012116F8010B9047BAF1010AF7D2207841
:10356000C00602D52046FFF743F96E4609E016F87B
:10357000010B3E280FD0D4E901219047206A401C5E
:103580002062B8F10108F2D22046FFF747F909B0EE
:103590000320BDE8F08F206A2844206203E0D4E9CC
:1035A0000121302090476D1EEBD3F8E7712B00000E
:1035B00002FCFFFF10B5436913B1AFF3008001E0D7
:1035C000FFF74FF9012010BD127800F124010A70B5
:1035D00000224A700122EDE711684FF0FF32E9E75F
:1035E00010B5436913B1AFF3008001E0FFF7D0F9E4
:1035F000012010BD128800F1240182840022C284BF
:103600000122EDE711684FF0FF32E9E770B5164689
:103610000C46054600F044F8036893F801010128C0
:1036200006D0FF2C0FD8185D68B101202C7070BD3A
:10363000D3F807013246214603F207130344284614
:10364000BDE8704018474FF0FF3070BD004870472C
:10365000540400207546FFF7F9FFAE4605006946A1
:10366000534620F00700854618B020B5FCF7F0FD62
:10367000BDE820404FF000064FF000074FF0000873
:103680004FF0000B21F00701AC46ACE8C009ACE8F4
:10369000C009ACE8C009ACE8C0098D46704700001D
:1036A00010B500F005F8001D10BD00BF9D0E000014
:1036B00000487047740400202DE9F0411F4604467D
:1036C00003260168072A01F4006004DB08B116A58F
:1036D00005E016A503E008B115A500E015A521F049
:1036E00010002060A069C01EA0610FB1401EA06143
:1036F0002046FFF77DF84FB1D4E9012138469047C5
:10370000206A401C2062C01C206206E0206AFAE7A2
:10371000D4E9012115F8010B9047761EF8D2204616
:10372000FFF77CF8BDE8F0814E414E006E616E00FF
:10373000494E4600696E66002DE9F04781461646FF
:103740008AB0354878440DC88DE80D003248784479
:10375000801C03AC0DC884E80D0041F69B30084482
:10376000372190FBF1F290FBF1F5A5F1800501FB0B
:1037700012041B3C02D56442012000E00020DFF867
:1037800098A080460027FA44AAF1BE0A0EE0E0079E
:103790000AD03246684607EB470101230AEB810154
:1037A00000F0DEFA8DE8070064107F1C002CEED1DB
:1037B000194F7F44AE3F19E0E80715D007EB04101E
:1037C0000DF1180A90E80E008AE80E00C068F04279
:1037D00001D1981908903246012306A903A800F0E8
:1037E000BFFA03AB83E807006D10641C002DE3D122
:1037F0004FF0010332466946B8F1000F03A802D02A
:1038000000F099FA01E000F0ABFAC9E90001C9F84B
:1038100008200AB0BDE8F0877C28000010B50446F7
:10382000AFF300802046BDE81040FCF7FCBC000070
:1038300001491820ABBEFEE72600020070475FEA90
:10384000400C08BF91F0000F4FEA8C234FEAC122D1
:1038500043EA51514FEA1C5018BF00F5F0404FEABF
:10386000300018BF41F000415FEA6C5C00F0298035
:10387000BCF1FF3F08BF40F080407047130C06BF0B
:1038800012044FF0100C4FF0000C130E04BF120284
:103890000CF1080C130F04BF12010CF1040C930F70
:1038A00004BF92000CF1020CD30F04BF52000CF1C4
:1038B000010C11464FF00002A0F11F00A0EB0C001C
:1038C000704711F0004F08BF704731F000413FF4DE
:1038D000D5AF0B0C06BF09044FF0100C4FF0000CD5
:1038E0000B0E04BF09020CF1080C0B0F04BF0901F9
:1038F0000CF1040C8B0F04BF89000CF1020CCB0FF0
:1039000004BF49000CF1010CCCF12003A0EB0C002A
:1039100022FA03F302FA0CF241EA030100F101007A
:10392000704720F07F4C80EA030023F07F47ACEB28
:10393000070303F57C5300F0004003F1FF032DE97A
:1039400080494FEA154B09B44FEA144325EA0B4E60
:1039500024EA03480FF2042606EB132749083E78B1
:103960005FEA320203FB0667C7F5000707FB06F6AE
:103970004FEA54374FEAD64606F1020607FB066CBB
:10398000CCF1005C4FEA1C472CEA074C07FB06F41D
:103990000CFB06F504EB15464FEA961634BF0020E3
:1039A0004FF000404FEAD13706FB07FC4FEA1C4CB2
:1039B0000CFB0BF7D21B03FB0CF761EB07010CFBB5
:1039C0000EF7B0EB074072EB17420CFB08F734BF61
:1039D000A2EB0742B2EB074261EB17414FEA0C44FE
:1039E0004FEA910706FB07FC4FEA1C4C0CFB0BF758
:1039F000B0EBC74072EB573203FB0CF734BFA2EBBE
:103A0000C742B2EBC74261EB57310CFB0EF7B0EB8C
:103A1000C70072EB57720CFB08F734BFA2EBC7026A
:103A2000B2EBC70261EB5771039F4FEA816141EA34
:103A3000921104EBCC044FEAD1374FEA826206FBC5
:103A400007FC42EA90124FEA80604FEA1C4C0CFBE4
:103A50000BF7D21B03FB0CF761EB07010CFB0EF716
:103A6000B0EB074072EB17420CFB08F734BFA2EB38
:103A70000742B2EB074261EB17414FEA8C554FEA20
:103A8000910704EB9C2406FB07FC4FEA1C4C0CFB43
:103A90000BF7B0EBC74072EB573203FB0CF734BFA8
:103AA000A2EBC742B2EBC74261EB57310CFB0EF7FA
:103AB000B0EBC70072EB57720CFB08F734BFA2EBF8
:103AC000C702B2EBC70261EB577115EB4C254FEA09
:103AD000816141EA92114FEA82624FEAD13742EAAC
:103AE000901206FB07FC44F100044FEA80604FEAA5
:103AF0001C4C0CFB0BF7D21B03FB0CF761EB070113
:103B00000CFB0EF7B0EB074072EB17420CFB08F70B
:103B100034BFA2EB0742B2EB074261EB174115EB52
:103B20001C154FEA813141EA92414FEA823242EA62
:103B300090424FEA80304FEA0C7644F1000448EAA4
:103B400003434EEA0B484FF0000EB2EB080C71EB4A
:103B5000030724BF624639464EEB0E0E4FF0000BB2
:103B60000018524149414BEB0B0BB2EB080C71EBC7
:103B700003077BF1000B24BF624639464EEB0E0E65
:103B80004FF0000B0018524149414BEB0B0BB2EBCD
:103B9000080C71EB03077BF1000B24BF624639462A
:103BA0004EEB0E0E51EA020718BF46F0010616EB67
:103BB0000E7655F1000254F1000103D5BDE88901EC
:103BC000BDE80088BDE88901BDE80048B61952414A
:103BD00041EB0101A3F10103704780807F7E7D7C72
:103BE0007B7A7978777676757473727171706F6E8F
:103BF0006E6D6C6C6B6A6A6968686766666564643A
:103C0000636362616160605F5F5E5E5D5D5C5C5BC3
:103C10005B5A5A5959585857575656555555545432
:103C2000535352525251515050504F4F4F4E4E4D90
:103C30004D4D4C4C4C4B4B4B4A4A4A4949494848DC
:103C4000484747474746464645454544444444431C
:103C500043434342424242414141002B9C4630D4BF
:103C600077002BD01CB54FEA370703B44FF0100094
:103C70004FF01001BAF1000F06D0BCF1000FDCBF0D
:103C800040F0080040F008014FF000000FBCBDE814
:103C900010400BF1010BBBF1010F08BF5FEA1707E2
:103CA00022BF12F1010211F101014FF0004143F175
:103CB000000300F0004043EA00007047F9D35708C2
:103CC000D0E746EA064613F1400F4FEA16461FDDDD
:103CD00013F1200FDFBF16430A46002120335B4259
:103CE000BED0C3F1200746EA064602FA07F74FEABC
:103CF000164646EA0706C3F1200722FA03F201FA44
:103D000007F721FA03F14FF0000342EA0702A7E7A1
:103D100046EA020646EA06464FEA164646EA010623
:103D2000BCBF46EA0646360C4FF000034FF00002D7
:103D30004FF0000194E72DE9804C9A46934670B409
:103D400091E8380007C831EA400C48BF34EA430C18
:103D500003D5FFF7E6FDFFF780FFF0BCBDE8008C60
:103D60002DE9804C9A46934670B491E8380007C814
:103D700010F0804F08BF13F0804F03D100F005F81A
:103D8000FFF76BFFF0BCBDE8008C20F07F4780EAB6
:103D9000030023F07F4C07EB0C03A3F57C5300F0EA
:103DA0000040A3F1FE0392F0000F00F0B38095F005
:103DB000000F00F077802DE901494FEA11404FEAEA
:103DC000144621EA004800FB06FC24EA064708FBEB
:103DD00006F607FB08F800FB07F718EB06484CEB64
:103DE000164C4FEA124B18EB07484FEA15464CEBBE
:103DF000174022EA0B4E0BFB06FC25EA06470EFB9A
:103E000006F607FB0EFE0BFB07F71EEB064E4CEB10
:103E1000164C4FF000061EEB074E4CEB174B18EB01
:103E20000B0840F1000018EB0E0B58EB000840F1B6
:103E300000008F1A4FF000013CBFC943661B14BF3E
:103E4000B5EB040C00213CBFC943F61B4FEA1744F5
:103E50004EEA8E0E27EA04454FEA1C4704FB076230
:103E60002CEA074C05FB07F70CFB05F604FB0CFCE2
:103E700016EB074642EB174216EB0C4642EB1C4290
:103E80001BEB060658EB0202414146EA9E0601D5AD
:103E9000BDE80189B619524141EB0101A3F10103CB
:103EA000BDE801894FEA14454FEA114724EA054667
:103EB00021EA074C05FB07F406FB07F70CFB06F1AC
:103EC00005FB0CFC11EB074144EB17444FEA12478A
:103ED00011EB0C4144EB1C4422EA074C05FB07F2B2
:103EE00006FB07F70CFB06F605FB0CFC16EB07467A
:103EF00042EB174216EB0C4642EB1C456A1854F194
:103F0000000148BF7047B619524141EB0101A3F1CE
:103F10000103704795F0000F37D04FEA11424FEA86
:103F2000144721EA024624EA074C02FB07F106FB8C
:103F300007F70CFB06F402FB0CFC14EB074441EB07
:103F400017414FEA154714EB0C4441EB1C4125EA9D
:103F5000074C02FB07F506FB07F70CFB06F602FB16
:103F60000CFC16EB074645EB174516EB0C4645EBEC
:103F70001C42121951F1000148BF7047B619524155
:103F800041EB0101A3F1010370474FEA14454FEAE9
:103F9000114724EA054621EA074C05FB07F106FB19
:103FA00007F70CFB06F24FF0000605FB0CFC12EBCA
:103FB000074241EB174112EB0C4251EB1C4148BF49
:103FC0007047921841EB0101A3F1010370474900CA
:103FD00050EAC12018BF04204A0D18BF40F001006C
:103FE00040F2FF72B2EB515F08BF40F002000128BF
:103FF00008BF052070472DE9F0414F1E00EBC701B7
:104000000446D1E9000115461E4637F006020DD0E0
:104010002A46334600F0F4FD7F1E04EBC703D3E9C4
:10402000002300F0D9FA37F00602F1D1022F25D093
:10403000042F13D0062F18BFBDE8F0812A4633465F
:1040400000F0DEFDD4E90A2300F0C6FA2A46334622
:1040500000F0D6FDD4E9082300F0BEFA2A46334624
:1040600000F0CEFDD4E9062300F0B6FA2A46334626
:1040700000F0C6FDD4E9042300F0AEFA2A46334628
:1040800000F0BEFDD4E9022300F0A6FA2A4633462A
:1040900000F0B6FDD4E90023BDE8F04100F09CBA81
:1040A000012201F0E2B900F097BA0000024A0020B4
:1040B000110701F0DAB9000001FDFFFF30380A28CE
:1040C00001D2012070470020704700002DE9F84F11
:1040D00004460D4621F0004000917349814211DCF5
:1040E0007249884201DC06D12CB120462946BDE840
:1040F000F84FFFF7D5BF6E48002DCCBF6D496E4914
:10410000BDE8F88F6D49814211DD6D498142D8BF0C
:104110004FF0FF366DDD20462946FFF758FF042893
:1041200008BFFFF7C3FF20462946BDE8F88F654961
:10413000654F25F00045814233DD6449814219DD38
:10414000002632464FF080432046294600F044FACC
:1041500080468A4601222046294601F086F900223F
:104160003B4600F0E7FE4246534600F0F1FA0446B3
:104170000D463EE001260022BA463B46204629462F
:1041800000F02AFA80460F46002253462046294670
:1041900000F0D0FE42463B4600F0DAFA04460D46F7
:1041A00027E04B4981421BDDDFF828A102260022CF
:1041B00053462046294600F023FD00223B4600F0EE
:1041C0000BFA80460F46002253462046294600F04F
:1041D000B1FE42463B4600F0BBFA04460D4608E0FD
:1041E000032622462B4600203B4900F0B1FA044644
:1041F0000D4622462B461046194600F001FD8B461F
:10420000824602460B4600F0FBFC07460246334856
:1042100088460B4606217844FFF7EDFE52465B4682
:1042200000F0EEFC82462E488B463A464346052176
:104230007844FFF7E0FE3A46434600F0E1FC0246D0
:104240000B46002E504659460CDA00F0C5F92246BE
:104250002B4600F0D5FC01B022462B46BDE8F04FBE
:1042600000F05CBE00F0B8F922462B4600F0C8FC16
:104270001C4A7A4402EBC603D3E9002300F05AFE3D
:1042800022462B4600F056FE174A7A4402EBC6033C
:10429000D3E9002300F042FE009A002AB8BF81F063
:1042A0000041BDE8F88F0000000010440000F07FDE
:1042B000182D4454FB21F93FFB21F9BF0000DC3FDE
:1042C0000000203E0000F33F0000F03F0000E63F0A
:1042D000008003400000F83F0000F0BFCE1C00004B
:1042E0008C1C00002A1C0000F21B00002DE9F04D80
:1042F0009446CCF1000423F000464CEA0404594FE4
:1043000046EAD4749A46884621F00042BC4206D858
:10431000454240EA050442EAD474BC4204D9BDE8EF
:10432000F04D6246FFF7BFBEAAF14055A5F17F658B
:1043300055EA0C040BD0022404EAAA744A4DDFF8B3
:104340002CE144EAD87452EA000B04D00CE0BDE83A
:10435000F04DFFF7BBBE002C14BF012CBDE8F08D63
:10436000022C30D0032C32D056EA0C0B0AD0BE42BD
:1043700020D1BA4209D126F0804622F0804233464D
:10438000114617E000291ADB25E0DFF8E4B0FB4412
:10439000002C04BFDBE90001BDE8F08D012C02BF59
:1043A000DBE9000181F00041BDE8F08D022C0AD06C
:1043B000032C0CD0BA4212D1B8F1000F0BDA2A4804
:1043C0002C49BDE8F08D28462B49BDE8F08D2846E4
:1043D0007146BDE8F08D24482849BDE8F08D921B58
:1043E00012153C2AC4BF204F244E10DCBAF1000F36
:1043F000BEBF12F13C0F00273E4608DB624600F0CC
:10440000A7F921F00041FFF761FE07460E4694B17F
:10441000012C08BF86F000460DD0194A194B022C1A
:104420003846314615D000F085FD2A46BDE8F04DEE
:10443000114B00F07FBD002213463846314600F094
:10444000DFFA04BF0220FEF7CDF938463146BDE859
:10445000F08D00F06FFD2A46BDE8F04D064B00F0F0
:104460005DBD00000000F07F182D4454FB2109C001
:10447000861B0000FB21F9BFFB210940FB21F93F0E
:10448000075C143326A6A13C2DE9F04D07460E46E5
:1044900000F0EAFC04460D463A46334600F03EFD85
:1044A000DFF86CA0DFF86CB01B4B0746884616F0AF
:1044B000004F4FF000020AD000F066FB0AD900223C
:1044C0005B463846414600F099FC1BD212E000F0F2
:1044D0005BFB08D2002253462046294600F02AFD05
:1044E00004460D460EE000225B463846414600F089
:1044F00085FC07D8002253462046294600F06CF878
:1045000004460D463146204665F31E01BDE8F08D98
:104510000000F03F0000E03F0000E0BF10B50029C0
:104520000AD00878002807D005487844FEF712F929
:10453000002801D0002010BD0248784410BD0000C2
:10454000D21A0000CA1A000010B500290AD0087853
:10455000002807D005487844FEF7FCF8002801D071
:10456000002010BD0248784410BD0000C21A0000AF
:10457000BA1A000021F00042A2F16052B2F5801F89
:1045800001F0004328BFD2F17F6C0BD95FEA001C19
:1045900043EAC20242EB507018BF704728BF20F0B8
:1045A00001007047B2F5801FBCBF184670474FEA44
:1045B000410C1CF5001F02D2084600F0A5BE70B5E4
:1045C00000F0C8FB00000089FFF7F6BF4FF0004085
:1045D000A0F580007047000010B591EA030F48BFB6
:1045E00083F0004300F1AE84841A71EB030C05D212
:1045F000121943EB0C03001B61EB0C01DFF824E103
:104600004FEA1154A4EB135C1EEA430F18BF9EEA55
:10461000445F73D023EA0E03DCF1200E21EA04513B
:1046200043F4801332D322FA0CFE10EB0E0023FA6F
:104630000CFE41EB0E01CCF1200E03FA0EFE10EB46
:104640000E0051F10001B1F5801FCCF1200E32D2E5
:1046500001EB045112FA0EF2BDE8104058BF70474A
:10466000401C38BF5FEA420218BF7047002814BFE1
:1046700020F0010041F100014FEA410313F5001F52
:1046800038BF7047A1F1C04100F0B2BB012A43EB33
:104690000302ACF1200CDCF11F0E32BF4FF0000E14
:1046A00023FA0CF310EB030041EB0451B4EB115F60
:1046B000D0D0A1EB045101F5801149085FEA300028
:1046C00001EB04510ED350F1000038BF12FA0EFE78
:1046D00008D1BDE81040C9E7401C38BF5FEA42027C
:1046E000CAD1C3E7BDE810404FEA410313F5001FEC
:1046F00038BF7047A1F1C04100F07ABB9EEA445F29
:1047000008D011EA5E0FBDE8104004BF01F000417F
:1047100000207047BDE8104070B500F01BFB00BFE3
:1047200064FBBE3E0000E0FF02494FF0000000F0D5
:104730006ABE00BF0000F87F491058BFC1F1404178
:104740005B1058BFC3F140438B42EFF300807047CA
:104750002DE9C04130B4DFF8A0C23CEA111418BF03
:104760003CEA131400F0EC8081EA03051CEA111402
:1047700044EAD57418BF1CEA131500F0C780A4EBF7
:1047800005044FF0004545EAC12145EAC32341EA4B
:10479000505143EA525304F17F74994204F50034B6
:1047A0004FEAC0204FEAC22208BF904200F09C802E
:1047B0004FEA13650FF24016765D4FEA134506FB8C
:1047C00005F7C7F1807706FB07F74FEAD737A7FB56
:1047D00003687642C8F58038A7FB06CE38BFA8F13B
:1047E000010807FB08E64FF0000EA6FB028CE6FB73
:1047F00003CEDCF1000CCEF1004E38BFAEF1010E5D
:10480000A6FB0C584FF000074FF00005E6FB0E87A3
:10481000A1FB08C6A0FB07CE16EB0E0645F100056E
:10482000E1FB076515F1E04E7EBFA4F580345FEA39
:1048300046066D4116F1800745F100054FEA17273E
:104840004FEA066647EA0567A6F1DE46B6F1805FE5
:104850004FEA15251FD9384624F0010C05EBC47129
:10486000BCF1FE6F01EB0C1102D8F0BCBDE8008179
:1048700024425CBF01F5801E9EEAC47F02D4F0BCD6
:10488000BDE80081244238D4F0BCA1F1C041BDE8AC
:10489000004100F0ADBA4FEAD22242EA43524FEA59
:1048A000D323A7FB02864FEAD02040EA415007FB02
:1048B00003661EEA0E0F4FEAD12105FB026658BFC0
:1048C000A6EB0056B6EB00564FEA520E4EEAC37EF8
:1048D00018EB0E0E56EB530EBDD518EB02085E41D9
:1048E0007F1C55F10005B6E74FF480154FF0000727
:1048F0004FF000064FF00008ADE7F0BC4FF00000AD
:1049000001F1C04101F00041BDE8008111EA0C1F36
:104910000CEA131500D00CE013EA0C1F00F0258000
:104920004FF00000F0BC81EA030101F00041BDE856
:104930000081F0BCBDE8004181EA030100F058BAF3
:10494000F0BCBDE8004170B500F004FA097EFC3E01
:1049500000F007B881EA03014FF0000001F00041C8
:10496000704781EA030100F043BAF0BCBDE80041A2
:104970004FF0000021497047FFFDFBF9F7F5F4F215
:10498000F0EEEDEBE9E8E6E4E3E1E0DEDDDBDAD8EA
:10499000D7D5D4D3D1D0CFCDCCCBCAC8C7C6C5C448
:1049A000C2C1C0BFBEBDBCBBBAB9B8B7B6B5B4B35F
:1049B000B2B1B0AFAEADACABAAA9A8A8A7A6A5A44A
:1049C000A3A3A2A1A09F9F9E9D9C9C9B9A9999980E
:1049D0009797969595949393929191908F8F8E8EB1
:1049E0008D8C8C8B8B8A898988888787868585843E
:1049F00084838382828181800000FF070000F87F2A
:104A000051EA030C17D41CF5801F58BFBCF5801F5A
:104A100000F10680994218BF704708BF9042704766
:104A200007D711F5801F58BF13F5801F19D499427D
:104A30007047894270471CF5801F08D5BCF5801F60
:104A4000F7D58B4218BF704708BF824270474FF4BA
:104A5000001C1CEB410F38BF1CEB430F01D28B42F3
:104A6000704770B500F076F9922449004FF000517C
:104A70004FF08053FFF760BE4FEA41034FEA5353B4
:104A8000A3F58063D3F11E03C8BFD3F1210C0CDD65
:104A90004FF0004242EAC12242EA505232FA03FC8D
:104AA0008CEAE17CACEBE1707047102BC4BF0020B6
:104AB000704703F5787CBCF1FF3F04D06FF00042F3
:104AC00082EA2100704770B500F044F949922480D1
:104AD00000207047F2E700004FEA1153A3F580630E
:104AE000D3F11E03A8BFD3F1200C08DB4FF0004226
:104AF00042EAC12252EA505232FA03F070470942A8
:104B00000BD4102BC4BF0020704703F5787CBCF198
:104B1000FF3F05D04FF0FF3070474FF00000704767
:104B200070B500F017F900BF49922480002070474B
:104B3000F0E710F0004248BF4042B0FA80F310FAAC
:104B400003F10AD0C3F11D0303F580634FEA41501E
:104B500002EB035202EBD12170474FF00000704787
:104B6000B0FA80F310FA03F10AD0C3F11D0303F584
:104B700080634FEA41504FEA035202EBD121704764
:104B80004FF000007047000051EA030C17D41CF5E9
:104B9000801F58BFBCF5801F00F10680994218BFE6
:104BA000704708BF9042704707D711F5801F58BF64
:104BB00013F5801F19D499427047894270471CF53C
:104BC000801F08D5BCF5801FF7D58B4218BF7047F2
:104BD00008BF824270474FF4001C1CEB410F38BFE6
:104BE0001CEB430F01D28B42704770B500F0B2F856
:104BF000922449004FF000514FF08053FFF79CBDC5
:104C0000DFF848C170B51CEA111E1EBF1CEA13155F
:104C10009EEA0C0F95EA0C0F00F06F8081EA030406
:104C200023EA4C134EEAD47E21EA4C1141F4801160
:104C300043F48013AE44A1FB024CA0FB0365AEF12C
:104C40007F7E361955EB0C05A1FB034C4CF100039C
:104C5000A0FB021C16EB0C06654153F10003094250
:104C600018BF46F0010613F4007F0BD14FEA033161
:104C70004FEA0530340341EA155140EA16506FF00F
:104C800003020AE04FEAC3214FEAC520F40241EAD9
:104C9000555140EA56506FF0020202EB2E4201EBF2
:104CA000025585EACE710AD05FEA440C18BF24F0A1
:104CB000004450F1000041F1000120EAD47040F2BC
:104CC000FE7C624500D270BDA84214BF4FF0804404
:104CD0004FF04044002E08BF0024BEF1806FA8BFF3
:104CE000A1F1C041BDE8704080F282804FF0000029
:104CF00001F1C04101F0004170479EEA0C0F0CEA3F
:104D0000131518BF95EA0C0F06D04FF0000081EA8A
:104D1000030E0EF0004170BD00F01CF88900013E4A
:104D200000F007B800F009B84FEA430C5FEA5C5C9A
:104D300008D081EA030100F05BB84FEA410C5FEA5A
:104D40005C5CF6D14FF00000014970470000FF079E
:104D50000000F87F0EF1020E2EF0030E5EF8046BD9
:104D6000364205D4012A43EB030515F5001F12D87E
:104D7000012841EB010C1CF5001F0CD80ED14FEAA5
:104D8000D17C15F5001F0CEB4C0C0CF1020C08BF8C
:104D90004CEBD37C04E04FF0080C01E04FEAD37CED
:104DA0000CEB4C0526FA05F606F00706B6F1040CE6
:104DB00006D20EEB860CBDE870404CF0010C60474B
:104DC000DFE80CF0090B02024FF000414FF0000049
:104DD000A1F5002170BD19461046012851EB0104D0
:104DE00018BFD4F5001484BF002001F0004170BD4D
:104DF0000808A0F500114FEA3101704753EA010C91
:104E000017D41CF5801F58BFBCF5801F00F1068029
:104E10008B4218BF704708BF8242704707D713F50F
:104E2000801F58BF11F5801F19D48B4270479B42D9
:104E300070471CF5801F08D5BCF5801FF7D5994237
:104E400018BF704708BF904270474FF4001C1CEB1E
:104E5000430F38BF1CEB410F01D2994270470FB48A
:104E60000CBC03BCFFF7C1BE5FEA410C5FEA5C5CAF
:104E7000ACF580635B1C39D4D3F1340240F3458038
:104E8000B2F1200314DA4FF0010C0CFA02FCACF181
:104E900001030340B3EB5C0220EA030008BF10EA01
:104EA0000C0F98BF704710EB0C0041F100017047E8
:104EB0000AD0C3F1200201FA02FC012821FA03F111
:104EC00001FA03F14CF100004FF0010C0CFA03FC65
:104ED000ACF10103B0F1004F21EA030108BF11EA70
:104EE0000C0F4FF0000088BF61447047B3F1FF3FE3
:104EF00028BF50EAC12C01F000414FF0000084BFF0
:104F000041F07C5141F470017047B3F5806FB8BF38
:104F1000704770B5FFF71EFF40DBB6BE91EA030F86
:104F200010B581F000413FF55FAB83F0004300F026
:104F300009B8000010B591EA030F48BF83F00043A1
:104F40003FF552AB841A71EB030C07D212198CF0A7
:104F5000004C43EB0C03001B61EB0C01DFF8A4E1F8
:104F60004FEA1154A4EB135C1EEA430F18BF9EEAEC
:104F7000445F00F0B08023EA6E03524221EA0451FC
:104F8000C3EB6E0338BF5B1EDCF1200E25D322FA83
:104F90000CFE10EB0E0043FA0CFE41EB0E01CCF1BF
:104FA000200E03FA0EFE10EB0E0051F10001CCF1C1
:104FB000200E29D412FA0EF201EB0451BDE8104084
:104FC00058BF7047401C1CBFB2F1004F704700280B
:104FD0000CBF491C20F00100704712EB020E43EB9E
:104FE000030218BF4FF0010E4EEA4202ACF1200C52
:104FF000DCF11E0E54D943FA0CFE10EB0E0051F1F9
:10500000FF31CCF11E0ED5D50EF1010E12FA0EFEB7
:10501000404141EB010101EB445C5FEA5C5C10D96B
:1050200010EBDE7001EB045138BFBEF1004FBDE85C
:10503000104018BF704700280CBF491C20F0010029
:10504000704730D24FEAD42C11F5001124F40064DB
:105050001BD0B1FA81F20B3AA41AA41ED2F120039C
:10506000914030FA03F31943904001EBCC71002CCE
:1050700001EB0451BDE81040A8BF704701F1C041E9
:105080004FF0000001F000417047B0FA80F310FAD1
:1050900003F100D110BDE41A173C4805C90AE4E742
:1050A00001EB045110BD491001EB0451BDE8104063
:1050B0004FEA300002E04FF0000170474A0008BF9D
:1050C0000042F8D0B2F5001F28BF704701F0004140
:1050D0004FF0000070479EEA445F07D011EA5E0F70
:1050E000BDE8104004BF002100207047BDE810401B
:1050F00070B5FFF72FFE00BF40DFF63E83F00041A2
:10510000104670470000E0FF90EA010F48BF81F0B1
:10511000004100F10681421A3CBF801A89184FEA0B
:10512000D0524FF07F4C1CEA410FA2EBD15318BF75
:105130009CEA026F00F03B804FF0004C4CEA0020EC
:105140004CEA012121FA03FC10EB0C0C1ED202F1F7
:10515000FF325FEA1C2040EBC25038BF70471CF0A2
:105160007F0F4FEA400C18BFBCF17F4F38BF70472C
:10517000C3F12003994008BF20F00100BCF17F4F2C
:1051800038BF7047A0F1C04000F0BEB84FEA3C0005
:10519000000A40EBC25028BF1CF0FF0F4FEA400C42
:1051A000E6D018BFBCF17F4F38BF7047EAE79CEAF2
:1051B000026F05D010EA5C0F08BF00F00040704796
:1051C00010B500F05BF800BF64FBBE3E401058BF56
:1051D000C0F14040491058BFC1F140418142EFF356
:1051E0000080704710F0004148BF4042B0FA80F3A1
:1051F00010FA03F2C3F19D030BD051EAC35101EB46
:105200001220530638BF704700F1010008BF20F09C
:105210000100704750EA010C00F113801CF5000FEB
:1052200058BFBCF5000F01D48842704707D710F56E
:10523000000F58BF11F5000F15D4884270478942FE
:1052400070471CF5000F04D5BCF5000FF7D581425F
:1052500070474FF0807C1CEB400F38BF1CEB410FB8
:1052600001D28142704710B500F008F8922449003D
:105270004FF000504FF08051FFF7A8BF0EF1020E23
:105280002EF0030E5EF8044B244204D44FEA410290
:10529000B2F17F4F11D84FEA4003B3F17F4F0CD8E2
:1052A0000ED14FEAD07CB2F17F4F0CEB4C0C0CF1DD
:1052B000020C08BF4CEBD17C04E04FF0080C01E07D
:1052C0004FEAD17C0CEB4C0324FA03F404F00704FE
:1052D000B4F1040C06D20EEB840CBDE810404CF087
:1052E000010C6047DFE80CF0070802024FF00040B5
:1052F000A0F5800010BD0846420018BFD2F18072B0
:1053000088BF00F0004010BDFF2141EAD050C00529
:105310007047000090EA010F48BF81F000413FF55F
:10532000FAAE421A04D882F00042A0EB0200114407
:105330004FEAD0524FF07F4C1CEA410FA2EBD15301
:1053400018BF9CEA026F4AD04FF0004C4CEA002094
:105350004CEA012121FA03FCB0EB0C0C0FD412F043
:10536000FE0F36D05FEA4C001DD5001240EBC25054
:1053700038BF70471CF03F0F18BF70470BE0A2F119
:1053800001025FEA1C2040EBC25038BF70471CF09E
:105390007F0F18BF7047C3F12003994014BF401E10
:1053A00020F00100704780084FEA122308BF7047C1
:1053B000B0FA80FCA2EB0C02CCF1280C60FA0CF0E5
:1053C00093EA122F04BF00EBC25070474FEAC3703C
:1053D0007047130A5FEADC1008BF7047F6E79CEAE3
:1053E000026F04D010EA5C0F08BF0020704710B5B0
:1053F000FFF744FF40DFF63E81F000407047FDF7C5
:1054000024BEFDF759BF0CF00F03092B08BF08207D
:1054100000F059800A2B0BD0082B18BF704708BF2B
:105420001CF0400F0AD04FF000004FF00001704711
:105430001CF0400F18BF4FF0004070471CF0100FD9
:1054400008D020F0704300F07F4242EAD3014FEAD7
:105450004370704700F0604021F07F4242EA000252
:1054600001F07F4040EA727070474FF0FF0C4CF43F
:10547000E06C1CEA11531CBF9CEA030C9445C2BFAC
:10548000DA4201EB02517047002B0DD0BCF1000F46
:105490000FD0002A01F00041A4BF41F0E04141F0EB
:1054A0007F614FF00000704701F000414FF00000B5
:1054B000704750EA01334FF09B0C18BF4CF0806CE2
:1054C0007FF432A970471CF4801F11D01CF4E02F28
:1054D00003D06FEACC31490070474FF04050EFF3F2
:1054E000008222F0704242EA000282F30088704794
:1054F0004FF00000704700000000000000000000B6
:10550000000000000000000000F8000000000000A3
:1055100000333000000000160E00160E00000000E0
:1055200000000000000040C07840C0784000043F08
:1055300004043F040400007088FC083000000018D8
:1055400020FF211E0000F008F000E01800000021FC
:105550001C031E211E0000F00888700000001E21A0
:10556000232419272110000000160E00000000005F
:10557000000000000000000000E01804020000002D
:1055800000071820400000020418E000000000405E
:10559000201807000000404080F0804040000202D8
:1055A000010F01020200000000F0000000000101F4
:1055B000011F01010100000000000000000000B018
:1055C000700000000000000000000000000000016A
:1055D0000101010101010000000000000000003095
:1055E000300000000000000000008060180400602F
:1055F00018060100000000E010080810E000000F8D
:10560000102020100F00001010F8000000000020F3
:10561000203F20200000007008080888700000303B
:1056200028242221300000300888884830000018E3
:10563000202020110E000000C02010F800000007FC
:105640000424243F240000F8088888080800001972
:10565000212020110E0000E0108888180000000FA3
:10566000112020110E0000380808C838080000007A
:10567000003F000000000070880808887000001CCF
:10568000222121221C0000E010080810E000000088
:10569000312222110F00000000C0C00000000000F5
:1056A000003030000000000000C0C000000000001A
:1056B00080B0700000000000804020100800000151
:1056C00002040810200040404040404040000404D4
:1056D000040404040400000810204080000000209E
:1056E000100804020100007048080808F0000000DB
:1056F000003036010000C030C828E810E00007186C
:10570000272423140B000000C038E0000000203CD8
:1057100023020227382008F8888888700000203F7C
:10572000202020110E00C030080808083800071893
:1057300020202010080008F808080810E000203F8A
:10574000202020100F0008F88888E8081000203F6B
:1057500020202320180008F88888E8081000203F3F
:10576000200003000000C0300808083800000718B7
:105770002020221E020008F808000008F808203F38
:10578000210101213F20000808F80808000000203E
:10579000203F2020000000000808F8080800C08012
:1057A00080807F00000008F888C028180800203F8B
:1057B00020012638200008F8080000000000203FE3
:1057C00020202020300008F8F800F8F80800203FDA
:1057D000003F003F200008F830C00008F808203FD4
:1057E000200007183F00E01008080810E0000F1024
:1057F000202020100F0008F808080808F000203FBB
:10580000210101010000E01008080810E0000F1855
:10581000242438504F0008F8888888887000203F7A
:105820002000030C30200070880808083800003879
:10583000202121221C00180808F808081800000080
:10584000203F2000000008F808000008F808001FAA
:10585000202020201F000878880000C83808000099
:1058600007380E010000F80800F80008F800033CB3
:105870000700073C0300081868808068180820307B
:105880002C03032C30200838C800C838080000005A
:10589000203F2000000010080808C8380800203801
:1058A000262120201800000000FE02020200000055
:1058B000007F40404000000C30C0000000000000AD
:1058C00000010638C00000020202FE000000004095
:1058D00040407F0000000020100804081020000055
:1058E00000000000000000000000000000008080B8
:1058F000808080808080000204080000000000009A
:10590000000000000000000080808080000000197E
:10591000242222223F2008F8008080000000003F5F
:10592000112020110E000000008080800000000E79
:10593000112020201100000000808088F800000E57
:10594000112020103F200000808080800000001F78
:10595000222222221300008080F0888888180020EC
:10596000203F202000000000808080808000006BAD
:1059700094949493600008F8008080800000203F99
:10598000210000203F2000809898000000000020A7
:10599000203F20200000000000809898000000C0F8
:1059A0008080807F000008F8000080808000203F19
:1059B00024022D302000000808F80000000000201C
:1059C000203F202000008080808080808000203F59
:1059D00020003F20003F00808000808000000020E9
:1059E0003F2100203F200000808080800000001FB9
:1059F000202020201F00808000808000000080FF89
:105A0000A12020110E000000008080808000000E88
:105A1000112020A0FF8080808000808080002020D6
:105A20003F21200001000000808080808000003342
:105A3000242424241900008080E0808000000000DD
:105A4000001F202000008080000000808000001FD8
:105A5000202020103F208080800000808080000176
:105A60000E300806010080800080008080800F30AA
:105A70000C030C300F00008080008080800000202C
:105A8000312E0E3120008080800000808080808157
:105A90008E701806010000808080808080000021C8
:105AA000302C2221300000000000807C0202000027
:105AB0000000003F404000000000FF000000000028
:105AC0000000FF0000000002027C80000000004097
:105AD000403F000000000080404080000080000047
